:020000022000DC
:106000000000012019620200016202000362020026
:10601000056202000762020009620200000000003F
:106020000000000000000000000000000B62020001
:106030000D620200000000000F6202001162020007
:10604000D18B020013620200D58F0200136202009E
:106050001362020013620200898E020013620200C2
:106060001362020013620200136202001362020054
:106070001362020013620200136202001362020044
:10608000136202003DA602001362020013620200C6
:106090001362020013620200F1B3020013620200F5
:1060A0001362020013620200136202001362020014
:1060B00013620200136202000000000000000000F2
:1060C00013620200136202001362020013620200F4
:1060D000136202001362020013620200000000005B
:1060E00000000000000000000000000000000000B0
:1060F00000000000000000000000000000000000A0
:10610000000000000000000000000000000000008F
:10611000000000000000000000000000000000007F
:10612000000000000000000000000000000000006F
:10613000000000000000000000000000000000005F
:10614000000000000000000000000000000000004F
:10615000000000000000000000000000000000003F
:10616000000000000000000000000000000000002F
:10617000000000000000000000000000000000001F
:10618000000000000000000000000000000000000F
:1061900000000000000000000000000000000000FF
:1061A00000000000000000000000000000000000EF
:1061B00000000000000000000000000000000000DF
:1061C00000000000000000000000000000000000CF
:1061D00000000000000000000000000000000000BF
:1061E00000000000000000000000000000000000AF
:1061F000000000000000000000000000000000009F
:10620000FEE7FEE7FEE7FEE7FEE7FEE7FEE7FEE766
:10621000FEE7FEE700F002B8FFF7FCBF0F484FF0C3
:106220000701884385460E4880470E48016841F4BF
:1062300070010160BFF34F8FBFF36F8F00F01AB88A
:1062400009480A490A4A884207D0521A05D00378F9
:1062500001300B700131013AF9D170470000012083
:106260000971020088ED00E094BB020018310020A3
:10627000183100203A493B480A1A02D007229143BC
:106280008D46394939480A1A06D00722914381F3CD
:106290000988022282F3148835483649364A00F0CC
:1062A00041F836483649374A00F03CF83648374915
:1062B000374A00F037F837483749384A00F032F8A3
:1062C00037483849384A00F02DF838483849394AB3
:1062D00000F028F838483949394A00F023F839489D
:1062E0003949002200F036F838483949002200F0D8
:1062F00031F838483849091A05F011FB374A9047F8
:1063000025482649884205D00268043003B49047E6
:1063100003BCF7E700208646EC4600200021304A07
:106320009047FEE7884214D0521A12D003460B431E
:1063300013430324234206D1036804300B60043165
:10634000043AF9D17047037801300B700131013AFA
:10635000F9D17047884202D002700130FAE77047E5
:106360000000012000E000200000012000000120CA
:10637000FCCA02001831002018320020E463020039
:10638000E4630200A0BA0200FCCA02001831002037
:106390001831002094BB020094BB020094BB0200A1
:1063A00094BB020094BB020094BB020094BB0200A9
:1063B00094BB0200FCCA0200FCCB02001832002091
:1063C00018320020183200207C4700207C47002033
:1063D0007C4700207C4700207C670020416202004F
:0463E0008D680200C2
:1063E40074DF704776DF70477ADF70477CDF704771
:1063F4007FDF70478FDF7047B1DF70477047000061
:1064040070B5114B114C4A88E41A114B1B88E408EF
:106414009A4205464FEA04440DD10A8840F6772390
:106424009A4208D18B880B49033B9BB21A4644F02D
:10643400030004F0B8FD2B886A88074944F004007F
:10644400BDE8704004F0AFBD14BB02003CBB0200C9
:106454001C31002094BB0200B0BB020003F0E0BB7F
:106464000388212B13B5044645D007D8112B30D00F
:10647400132B56D0102B0CD002B010BD522B58D079
:10648400562B01D03B2BF7D1A0881321FFF7AAFF8D
:1064940018E02C4B2C482D4901221A702C4BC01AA1
:1064A400C008000440F0030004F070FD072000F071
:1064B40007FD08B103F0B4FB264BA18826481980D8
:1064C40002F08CF80028D7D002B0BDE8104003F0E9
:1064D400A7BB1C4B1C48214900221A701C4BC01A34
:1064E400C008000440F0030004F050FD194B4FF6BF
:1064F400FF721A80C0E7164B13481949C01AC00826
:10650400000440F0040004F041FD0023A088ADF82D
:10651400043001A9FFF76EFF0028ADD003F080FB23
:10652400AAE70C4800231A4685210088FFF760FF7C
:10653400C8E7084800231A4619460088FFF75CFF9D
:10654400C0E700BF263800203CBB0200E9BB0200C4
:1065540014BB02001C3100205C3C0020F3BB020091
:1065640000BC020008B503784BB9054B3B211888E1
:10657400FFF738FF18B1BDE8084003F051BB08BD70
:106584001C310020042808B502D007280CD008BD0F
:106594000A4B13211888FFF725FF30F00803F6D0C3
:1065A400BDE8084003F03CBB044B1A884FF6FF7368
:1065B4009A42ECD1024801F02DFBEEE71C31002099
:1065C400283800202DE9F041067805469EBB1B4B78
:1065D4001B4C1C49DFF87080E41AE408240444F0DE
:1065E4000407384604F0D2FCAA8A2969384604F024
:1065F400F1FC44F00104AA8A96420AD32B6913449D
:1066040013F8013C0D2B16D10A2003F081FE11284A
:10661400F9E72B69985D03F07BFE074648B1112822
:10662400F7D002464146204604F0B4FC384603F055
:10663400F7FA0136DFE7BDE8F08100BF14BB0200C2
:106644003CBB020014BC020046BC020003F0E8BAE2
:1066540008B50949094801F01DFE08B103F0E0FA44
:1066640006484FF4007101F02AFE18B1BDE8084055
:1066740003F0D6BA08BD00BF05640200683C0020E0
:1066840000B5ADB0AC22002101A805F0D7F9022372
:106694008DF8043005230F4A8DF807300123ADF837
:1066A400503015928DF88030402244F25063CDE989
:1066B40023230948094B2A9301A901F0F2F808B1F0
:1066C40003F0AEFA0448012101F0E8F82DB05DF8BA
:1066D40004FB00BF1831002028380020696802003C
:1066E40008B50548032101F059F918B1BDE808407F
:1066F40003F096BA08BD00BF283800200C2837B52F
:106704000C462ED91E490322204605F012F940BB3F
:106714001C49D4F803300B60D4F807304B60B4F84C
:106724000B300B810A22112301A88DF80430FFF7E6
:106734005DFE08B103F074FA134B144C1B7893B14B
:10674400B4F82454FFF79CFFA4F824541048114BC8
:10675400114A1249C01AC008000440F0040004F0B1
:1067640019FC03B030BD94F85400FFF739FE08B1AA
:1067740003F056FAFFF784FFFFF7B2FFE6E700BF26
:1067840071BC02001C380020263800202838002064
:106794003CBB020014BB020075BC020086BC0200B4
:1067A400F7B503781BB1012B45D003B0F0BD254DDF
:1067B400254E2868304403F095FD286801300228EE
:1067C4002860F2D93146C0B2FFF798FF2B683344F2
:1067D40013F8013C7E2BE8D11C4B1D4C1D491E4F68
:1067E400E41AE408240444F00404204604F0CEFB34
:1067F40020462A88194C314604F0ECFB2B8801937F
:1068040001AA23883146384602F060F8132803D8D9
:10681400134BC340DB070BD403F002FA0A480021F0
:106824004FF40072296003B0BDE8F04005F006B9EA
:106834001328E3D0F2E7406803B0BDE8F04003F06A
:10684400EFB900BF183800201836002014BB02002E
:106854003CBB0200A1BC0200403100201C310020DE
:106864002101080008B548B103280BD1022000F02B
:1068740027FB38B1BDE8084003F0D2B9BDE80840B1
:10688400FFF72EBF08BD000000B5604D0FCD8DB0E1
:1068940005AC0FC495E803005D4B5E4A01934FF4C9
:1068A400007384E80300CDE9032302935A4A0723C3
:1068B40001A905A803F0BEFC08B103F0B1F94FF437
:1068C4008041002004F0FEF908B103F0A9F904F0B6
:1068D4004FF903F0B9FA08B103F0A2F94F4A50484E
:1068E400002103F0E3FA08B103F09AF94D480022BD
:1068F4004FF4203103F0ECFA08B103F091F94A495E
:10690400032000F0E9FA08B103F08AF905A9002090
:1069140000F0B0FB08B103F083F904F083F808B188
:1069240003F07EF904F00AFD08B103F079F90023BD
:1069340005A90120059304F0A7FD08B103F070F93F
:1069440005A804F061FE08B103F06AF91123374980
:106954008DF804300E2201A8FFF748FD08B103F0BA
:106964005FF90023ADF81830314B059305A84FF4B7
:10697400C873ADF81A30FFF737FD08B103F050F9CA
:10698400FFF766FE2B4B2C48059305A901F014FE76
:1069940008B103F045F9294B2948019301A901F0F5
:1069A40019FF08B103F03CF9FFF76AFE14220DEB5E
:1069B4000200002105F042F84FF4F0234FF4A03216
:1069C400CDE9062303238DF820301E4B0A9305A836
:1069D4001D4B0B9301F03CFA08B103F021F91B485D
:1069E40004F0B4FE1A4B1B481B49C01AC00800042B
:1069F40040F0030004F0CAFAFFF772FE04F082F9D3
:106A04000028FBD104F024F8F8E700BFC4C8020052
:106A14001834002018320020A56702000164020027
:106A2400C0C802002031002089650200C1BC0200F8
:106A340010003C00616402005C3C0020C965020057
:106A4400403100206965020051660200D0BC02009A
:106A540014BB02003CBB0200E1BC0200054A4FF03B
:106A6400A043125CD3F8043523FA02F0C04300F0CB
:106A740001007047E0C80200044B1A5C01239340F4
:106A84004FF0A042C2F80C35704700BFE0C80200C6
:106A9400044B1A5C012393404FF0A042C2F808351E
:106AA400704700BFE0C8020008B50020FFF7F0FF00
:106AB4000120FFF7EDFF0220FFF7EAFFBDE80840E1
:106AC4000320FFF7E5BF08B50020FFF7D5FF01203D
:106AD400FFF7D2FF0220FFF7CFFFBDE808400320F5
:106AE400FFF7CABF074A4FF0A041105CD1F8043544
:106AF4000122824022EA03001340C1F80805C1F8CC
:106B04000C357047E0C80200054A4FF0A043125C00
:106B1400D3F8103523FA02F0C04300F001007047A7
:106B2400DCC802000D2809D00E2809D00F2809D08E
:106B3400102814BF4FF0FF30032070470020704727
:106B44000120704702207047C20708B501460CD5E2
:106B54004FF0A0430322C3F84427C3F84827C3F8DF
:106B64004C27C3F85027FFF79FFF8B070AD54FF038
:106B7400A0430C22C3F83427C3F83827C3F83C27B2
:106B8400C3F8402708BD0220FFF7ACBF2DE9F0474A
:106B940080460D46FFF7C6FF0328044604D8012D9E
:106BA40004D0022D31D01DB3BDE8F0871A4E00EB9E
:106BB4004003F218F55C5378470053B1DFF868904E
:106BC40016484A464FF4804103F082F908B989F81F
:106BD400008027443E44124BB2781A55002DE3D06E
:106BE400104B1B68002BDFD02846BDE8F047184740
:106BF4000A4803F09BF9084B04EB440213449D78C4
:106C0400074B1B5DAB42CFD1E8E7034B00EB4004DD
:106C140023445D78E2E700BF853C00206831002012
:106C2400803C0020943C0020843C00200078022119
:106C3400FFF7ACBF08B5094B1B7853B10020FFF731
:106C440027FF0120FFF724FFBDE808400320FFF7DA
:106C54001FBFBDE80840FFF727BF00BF983C0020D6
:106C6400F8B5884D2B7804461BB100232B70FFF731
:106C7400E1FF172C00F2A280DFE814F018002300D3
:106C840023004E006E007F0090009A00A200A7002F
:106C9400A200A700AF00B400B400B400B400B40074
:106CA400DE00E300EB00F300FE00FE00FFF7C2FF8E
:106CB400754803F03BF9754B002205461A702846C7
:106CC400F8BD0020FFF7CAFEF0B10020FFF7E0FE98
:106CD400022C14BF4FF47A654FF4E1656B4B1C70C2
:106CE40000244FF400464FF47A7021464FF4FA62C0
:106CF4000023E5FB060104F059FD22460146BDE8E8
:106D0400F840614803F0E4B8FFF7B6FE022C14BF64
:106D14004FF4C875C825E1E70020FFF79FFEB8B11E
:106D24000020FFF7B5FE4FF44874584B03220025AA
:106D34004FF400464FF47A7029461A70E4FB0601BA
:106D44004FF4FA62002304F031FD2A460146D6E7E7
:106D5400FFF792FEC824E8E70020FFF77FFE38B172
:106D64000020FFF795FE4FF47A64484B0422DEE7D7
:106D7400FFF782FE4FF4C874F7E70020FFF76EFEBA
:106D840048B10020FFF784FE404B05221A7040F6FC
:106D9400CD410022B3E7FFF76FFEF5E70020FFF7D0
:106DA400A1FE3A4B06221A70002240F26661A6E761
:106DB4000020FFF761FE354B07221A7000257EE79D
:106DC40001202870FFF78EFEEEE701202870FFF700
:106DD40089FE00224FF4005191E7FFF774FE2B4B1C
:106DE4000C22EAE72A482B4E03F0A0F8D4F1110450
:106DF40005461CD0D8B9012C13D0C8235C432946BE
:106E04004FF400474FF47A704FF4FA620023C4FB46
:106E1400070104F0CBFC2A4601461D4803F058F84C
:106E240005460220FFF728FE0123337047E70220BE
:106E3400FFF72EFE0023F8E7FFF7FCFE134B1222A8
:106E4400BBE7FFF7F7FE0020FFF716FE0F4B1322F8
:106E5400B3E7FFF7EFFE0120FFF70EFE0B4B142202
:106E6400ABE7FFF7E7FE0020FFF706FE0120FFF780
:106E740003FE064B1522A0E7FFF725FE034B1C700B
:106E84009CE700BFA03C0020A8310020A13C0020CA
:106E940088310020983C0020044B1B68DB0703D595
:106EA400034B1878FFF7DCBE704700BF9C3C002002
:106EB400A13C0020032801D8FFF726BE002070471C
:106EC400044B1B6813F0010301D0FFF7C9BE184639
:106ED400704700BF9C3C002038B51C4B18601C4B0D
:106EE40010F00204054619601AD01A4B1A480E22F3
:106EF4001A700F22DA7010229A7111225A72042128
:106F040040F2333202F01EFE044648B902F072FE2B
:106F1400044628B90146114A114802F0C7FF044645
:106F2400EB0711D50120FFF70FFE6CB921460D4A7E
:106F34000D4802F0BBFF044630B9BDE838400B4AA7
:106F44000B48012102F0B2BF204638BD9C3C002012
:106F5400943C0020853C0020E4C80200316C02000F
:106F640004C902009D6E02000CC902008B6B020072
:106F740008C90200032811D8012A0AD101290FD116
:106F840000F10E02D2B20D4B00EB40001A54002067
:106F940070470129F7D0022904D049B1072070476E
:106FA4000022F8E7054B00EB400003445A70EEE77B
:106FB400024B00EB400003449A70E8E7853C002054
:106FC40008B5012202210020FFF7D4FF08B10728E9
:106FD40010D1072202210120FFF7CCFF08B10728B6
:106FE40008D100210A220846FFF7C4FF10B1072880
:106FF40008BF002008BD00000388102B10B502D084
:10700400112B22D010BD194C2168D1B90122084698
:10701400FFF7B0FF08B107280FD107220221012092
:10702400FFF7A8FF08B1072807D104220221002096
:10703400FFF7A0FF28B1072803D00D4B1B6803B14D
:107044009847236801332360DCE7084A1368013B4F
:107054001360002BD6D1FFF7B3FF0028D2D0044B26
:107064001B68002BCED0BDE810401847A43C00207C
:10707400A83C00200D4B10B518600C4629B1012026
:10708400FFF718FF40B102232370094B1B6853B963
:10709400BDE81040FFF794BFFFF70CFF08B10B23C6
:1070A400F2E72070F1E7002010BD00BFA83C0020EB
:1070B400A43C00204FF08053D3F83001421C04BF9D
:1070C4004FF0704393F8E00F831F584258417047C4
:1070D4004FF0704393F8E02F062A08D1D3F8E80F55
:1070E40000F0F000A0F130035842584170470020EE
:1070F40070470000024AD2F80034002BFBD07047DE
:1071040000E0014010B5FFF7D5FF40B14FF08053C8
:107114008F4AD3F82433C3F30423C2F84035FFF76E
:10712400D7FF10B18B4B8C4A5A67FFF7C3FF48B1A6
:107134004FF080534FF08042D3F84432C3F34233CC
:10714400C2F83C35FFF7C4FF30B1844AD2F8FC30B2
:1071540023F08073C2F8FC30FFF7ACFF40B14FF06E
:1071640080430022C3F80C21C3F81021C3F838254A
:10717400FFF7AEFF20B14FF080430322C3F8A025F0
:10718400FFF7A6FF60B1764B0522C3F81026012253
:10719400C3F888260022C3F818263F22C3F8142611
:1071A4004FF08053D3F83021511C09BF4FF0704386
:1071B400D3F8343193F8E02FD3F8E83F08BFC3F392
:1071C4000313062A49D1033B012B46D94FF08052C1
:1071D400644BD2F80414C3F82015D2F80814C3F889
:1071E4002415D2F80C14C3F82815D2F81014C3F8D7
:1071F4002C15D2F81414C3F83015D2F81814C3F8A7
:107204003415D2F81C14C3F84015D2F82014C3F86E
:107214004415D2F82414C3F84815D2F82814C3F836
:107224004C15D2F82C14C3F85015D2F83014C3F806
:107234005415D2F83414C3F86015D2F83814C3F8CE
:107244006415D2F83C14C3F86815D2F84014C3F896
:107254006C15D2F84424C3F87025FFF72BFF48B10E
:107264004FF080534FF08042D3F8583203F04F036D
:10727400C2F8E43EFFF71EFF48B14FF08043D3F855
:107284000024D20744BF6FF00102C3F800244FF07A
:107294008053D3F83021062A0BD1D3F83431033B81
:1072A400022B81BF304AD2F83C3743F48063C2F8E2
:1072B4003C372A4AD2F8883043F47003C2F8883045
:1072C400BFF34F8FBFF36F8F4FF08053D3F830214C
:1072D400062A0CD1D3F83431033B032B81BF4FF082
:1072E4001023D3F808224FF08043C3F858254FF0F9
:1072F4001023D3F80022002A03DBD3F80432002B36
:1073040022DA1A4901234FF01020C1F8043515245C
:10731400FFF7F0FEC0F80042FFF7ECFEC0F80442AD
:10732400FFF7E8FE0023C1F80435FFF7E3FEBFF3DF
:107334004F8F0A490E4BCA6802F4E0621343CB60D4
:10734400BFF34F8F00BFFDE70A4B0B4A1A6010BD15
:107354000030014000C007400DF0ADBA00ED00E080
:107364000050004000C000400010004000E0014018
:107374000400FA05C83100200090D0036DDF704787
:1073840079DF70477DDF704764DF70472DE9F04F88
:1073940085B000260E9CBDF83CB0B4F800A0019165
:1073A400074690461D46B1463A884A4505DC002EFC
:1073B40037D1002005B0BDE8F08F7A6852F8290073
:1073C400039000220DF10B0103A8FFF7DDFF002855
:1073D400F0D19DF80B20424520D1228886F001008F
:1073E40002EB080101EB4001594524DC3EB90132AE
:1073F40092B2019B2280AB542288013222802288DF
:107404000DF10B012A4403A8FFF7BEFF0028D1D1D8
:1074140021889DF80B200A442280012609F10109E4
:10742400C2E72388013BA3EB0A039BB2FF2B02D8DC
:1074340005F80A30BDE70C20BCE72DE9F341089FAD
:10744400BDF824801546CDE90078022204461E4684
:10745400FFF79CFF50B93346102229462046CDE958
:10746400087802B0BDE8F041FFF790BF02B0BDE874
:10747400F0812DE9F04F00231788138090F82D3008
:1074840085B006460D4614465BB3082F40F2B28120
:1074940002A8FFF773FF002840F0E2802388DDF89C
:1074A40009100822EA54238801339BB21B2223804B
:1074B400EA54238801339BB2EA182380E950BDF8CB
:1074C4000D30938023889DF8082006339BB2012A4F
:1074D40088BF0122238094BFE854EA5423880133EF
:1074E4002380B37803B323880433BB4200F2828140
:1074F40002A8FFF745FF002840F0B280238803224A
:10750400EA54238801339BB219222380EA54238846
:10751400BDF8082001339BB2E9182380EA54120A0B
:107524004A70238802332380F278A2B12388D91CBD
:10753400B94200F25F810221E954238801339BB2EE
:1075440001212380E95423880B449BB22380EA540D
:1075540023880B4423807368B3B193F900202388F4
:10756400D91CB94200F246810221E954238801332F
:107574009BB20A212380E954238801339BB22380E0
:10758400EA542388013323803389002B5DD1338A65
:1075940053B1CDE900472B460722032106F1100021
:1075A400FFF74BFF00285BD1338B53B1CDE9004784
:1075B4002B461522142106F11800FFF73EFF002880
:1075C4004ED1326A002A4ED1D6F82480B8F1000F89
:1075D40031D0B8F804302188981C8A1C0244BA427D
:1075E40000F20881FE2800F2058103336B542388DE
:1075F40001339BB2FF222380EA54238801339BB2D8
:107604002380B8F80020EA54E918120A4A70208846
:10761400023080B22080B8F8042062B1D8F8081093
:10762400002900F0E980284404F0D6F92388B8F84A
:1076340004201344238096F82C30002B59D133783E
:10764400002B40F0978000200AE0CDE900472B464C
:107654000622022106F10800FFF7EFFE002896D06B
:1076640005B0BDE8F08FB4F800C00CF10603BB42CE
:1076740000F2C0801188052940F2BE806FF4486E84
:1076840001EB0E039BB24FF27D3E734540F2B48092
:107694005388052B40F2B0806FF44860181880B20C
:1076A400704540F2A9804FF6FF70814202D09942A2
:1076B40000F2A280052305F80C30238801339BB225
:1076C40012212380E954238801339BB2238011883B
:1076D400E954E818090A4170238802339BB22380D5
:1076E4005288EA54E918120A4A7023880233238024
:1076F4006AE7B36A002B7FD04FF000094FF00C0A01
:107704004FF0160B96F82C305FFA89F2934296D913
:10771400B16A0AFB02F201EB0208B8F80430981CC3
:10772400FE2867D8208803332B54238801339BB267
:10773400238005F803B0238801339BB223808A5A3F
:10774400EA54E918120A4A702088023080B2208074
:10775400B8F804205AB1D8F8081000294CD02844AD
:1077640004F03AF92388B8F804201344238009F17B
:107774000109C7E73288012A3ED02288901CB8420A
:1077840038D8012B04D17378023313449F4231D388
:10779400023FBF1ABFB202A92844ADF80870FFF730
:1077A400F1FD00287FF45CAF3278BDF80830022A7E
:1077B4001CD07178994201D3BB4219D9012A02D154
:1077C4008F4228BF0F46ADF808700821BDF8083075
:1077D400FE2B0FD822880133AB542288013292B297
:1077E4002280A9542288134423802CE7BB42EAD880
:1077F4000921EBE70C2033E7072031E770B5C8B166
:10780400F2B10024651C8D4206DA1688A64212D80D
:10781400061976789E420ED1A14211D9005D48B175
:10782400013880B230B10234A3B210FA84F4A14218
:1078340006DB138070BD045D14FA85F5ACB2E1E794
:107844000020F7E713B513460022ADF806200DF12A
:1078540006020446FFF7D2FF10B1BDF8060020442B
:1078640002B010BD72DF704773DF704774DF70477A
:1078740038B5012204460D46B0F81414D0F81004AB
:10788400FFF7E0FF00B1057004F13C0204F58261EA
:1078940004F15400BDE83840FFF7E4BF80F830102D
:1078A4007047F8B504460F46002973D0002871D0FC
:1078B40091F87A301BB191F89830002B6CD1D7F83D
:1078C400A030042B68D0D7F89C30042B64D04FF040
:1078D400000C84F802C007F178060FCE251D0FC5F1
:1078E4000FCE0FC596E8070085E8070084F830C07E
:1078F400D7F8A4306363D7F8A830A36304F5826291
:107904004FF6FF73C4F826C4A4F82434C4F8202422
:10791400C4F829C422780AB984F8543094F824307D
:10792400002B0CBF1F23EE2304F15501C4F81014DF
:10793400A4F8143404F214423846FFF79AFD40BB0D
:1079440094F82430002B0CBF1F23EE2304F23121C2
:10795400C4F81814A4F81C3404F21C4207F13C00C7
:10796400FFF787FDA8B9A369A4F848304FF48073E2
:107974000125A4F8503063692064014684F83C5022
:10798400636404F13C0204F15400FFF76BFF00B997
:107994002570F8BD0E20FCE70720FAE7F8B5077854
:1079A40004460D46002F00F0FE800023C0F8263464
:1079B400C0F82934C388817000F226460BB101292E
:1079C40003D0E37943B1022D06D1636BA3B1012245
:1079D40084F82D2408209847334604F22C4113F8E8
:1079E400012F12B99942FAD117466B1E032B4BD8BB
:1079F400DFE803F0050B0F1284F82D34ECE7A379CC
:107A04001BB194F8243003B94FB9E3790BB1002FBB
:107A14003CD1237A002B3BD1657AAD00EDB2636B88
:107A2400A570002B36D0033D012D33D862798AB37B
:107A340094F82E2472BB84F83024012284F82F2475
:107A4400072098471722002104F13D0003F0F6FFB8
:107A5400E36A5A1E0121022A94F8242084F83C1077
:107A640028BF0B4684F8513032B1A36A581E02284D
:107A740028BF0B4684F85230A378042B1BD8DFE8C8
:107A840003F0780D223557000025C8E70225C6E724
:107A94000325C4E7002384F82F34D3E7012384F8B3
:107AA40031300023C4F82034022384F83C3080238E
:107AB4002664A4F84830A378002B5ED1636B002BB6
:107AC4006DD100206AE00223002A84F831300CBF13
:107AD4000323072384F83C302369A4F848300023A7
:107AE400C4F82034E36826646364E4E7616961648C
:107AF400A169A4F8481012B1062284F83C206279E6
:107B04007AB194F82E2462B994F830244AB102234D
:107B140084F8503004212046FFF7AAFE0028CAD179
:107B2400052384F8313004F58263C4F82034C2E7B5
:107B3400002A0CBF01220622E16984F83C20627904
:107B44006164216AA4F84810002AEAD094F82E242B
:107B5400002AE6D194F83024002AE2D0022384F8E3
:107B6400503004212046FFF783FE0028A3D10623CA
:107B7400D7E7002384F831309DE7D4F8201404F1CA
:107B84003C0204F15400FFF76DFE38B994F830104C
:107B940094F85400FFF768FE00288FD0F8BD94F8DD
:107BA400310098478DE70820F8E70388112B10B5BA
:107BB4000C460AD0262B1FD0102B05D1C27B8388FC
:107BC400012A01D1A1F8243410BD0022838881F850
:107BD4002E24B1F824249A42F6D10B79002BF3D148
:107BE40001212046FFF7DAFE0028EDD0A36B002B1D
:107BF400EAD0BDE810401847037A013B012BE3D8D3
:107C0400897805230131B1FBF3F303EB8303C91A2C
:107C1400C9B2E6E738B5044690F85400FFF726FEEB
:107C2400012384F82E34002384F8303484F850304F
:107C340006212046FFF71CFE054638B9A1782046E8
:107C4400FFF7ACFE10B1A36B03B19847284638BDCB
:107C540075DF704776DF70477ADF70477BDF7047E8
:107C6400034B1A8882420CBF18460020704700BF9D
:107C7400D03C0020024B9B6903B11847704700BFFA
:107C8400B43C002073B585B22846FFF7E9FF0446EB
:107C940068B1174E027A337B9A4211D200F10A017D
:107CA4002846FFF7D5FF20B9237A0133237202B0A7
:107CB40070BD1128FBD002B0BDE87040FFF7DABFF9
:107CC40000230372337C43B13B212846FFF7C2FFF4
:107CD40030F0080301D0FFF7CDFF7369002BE6D025
:107CE40000228DF80420ADF8065001A89847DEE77D
:107CF400B43C002013B50B46497A02460E4871B9CC
:107D0400D0E90141187A002808BF2146586802F0DA
:107D1400DFF878B102B0BDE81040FFF7ABBF002137
:107D24001972436933B101218DF80410ADF80620AE
:107D340001A8984702B010BDB43C00204B880288CB
:107D44009A4212D842889A420FD380888B8840F294
:107D5400F311884294BF021A421A9A4205D8084481
:107D6400984234BF00200120704700207047000073
:107D74000388122B70B5014659D004D8102B1ED09D
:107D8400112B44D070BD502BFCD12F4BC288DB8902
:107D94009A42F7D1038A022BF4D186883046FFF742
:107DA4005FFF05460028EDD001F1120000F07FF9D5
:107DB40038BB686802F0BAF80028E3D00AE0C37B55
:107DC4008688012BDED14FF6FF70FFF749FF054689
:107DD40020B90420BDE87040FFF74CBF1B4A068061
:107DE400002303721368C0F80A305368C0F80E30D9
:107DF40010310A30FFF7A2FF134B6872DB89002BA6
:107E0400C0D129463046BDE87040FFF773BF808873
:107E1400FFF726FF04460028B4D0406802F086F835
:107E240008B1FFF727FF4FF6FF732380AAE7868880
:107E34003046FFF715FF05460028A3D008310A3065
:107E4400FFF77CFF6872DCE7B43C0020AC3C002008
:107E5400F8B5064648B305460FCD154F3C460FC44A
:107E640095E8070084E807003068124C3C60B0B124
:107E7400FFF7F2FE90B932681368236053686360B9
:107E84000D480E4A4FF6FF7303800D4B40F8043F34
:107E9400002102F00BF8002818BF0320F8BD20468B
:107EA400FFF7DCFE0028EBD0F8E70E20F6E700BF72
:107EB400B43C0020AC3C0020D03C0020897C020073
:107EC400E83C00200AB102F049BC02F050BC73B592
:107ED4000191019C06466CB100252C46294601A857
:107EE40002F04FFC18B106EB440301349D800135C8
:107EF400142DF3D13046346002B070BD2DE9F04743
:107F040003888488103B8CB005460A2B21D8DFE80F
:107F140003F0064020202020202020654700DFF8C1
:107F2400E880D8F80830DB430093D8F8041068469A
:107F340002F053FC009901A8FFF7C9FF0DF10609EF
:107F44000027019B9F4207D3132C12D9042001F070
:107F540067FE0CB0BDE8F08739F802AF00260136A1
:107F6400514608EB860002F002FC1E2EF7D10137C1
:107F7400E7E71F48214602F0F1FB1E48214602F0C4
:107F8400EDFBEB7B022BE4D11B48214602F0E6FB20
:107F9400DFE7174821460CB0BDE8F04702F0E7BB25
:107FA400027A16483F2A4FEA1215214694BF00224E
:107FB4000122FFF787FF022D94BF002201221048FF
:107FC4002146FFF77FFF012D0E4894BF00220122B6
:107FD40021460CB0BDE8F047FFF774BF037A002BCD
:107FE400B7D1427A0548C2F3C0022146F1E700BF87
:107FF400103D00200C3D0020143D0020203D0020B9
:108004001C3D0020183D0020083D00201328014697
:1080140002D8024802F0B5BB002070470C3D002096
:1080240010B50446FFF7F2FF002814BF20461420C1
:1080340010BD70B50546164608460AB90E2070BD37
:1080440000231360002DF9D02B68002BF6D0EB88A9
:1080540013F003040ED1FFF7E3FFC0B214280BD0D2
:108064002B7983420AD9EA882B6800FB02333360F8
:108074002046E4E70720E2E70520E0E70420DEE706
:10808400AADF7047002301380B70042806D8DFE804
:1080940000F00306080A0C0011230B70704721231B
:1080A400FBE73123F9E71223F7E72223F5E70088FA
:1080B40000F001007047F0B58B7891B00C46012BAD
:1080C40038BF01238DF80E3000270B88ADF80C3033
:1080D40069460546607C8DF80270FFF7D3FFA07CEB
:1080E4000DF10101FFF7CEFF1646227D237B0132FD
:1080F40002F0030243EA4203E27B43EAC203227C26
:1081040043EA02139DF8022003F01F0322F01F022A
:10811400134339461C2209A88DF8023003F08EFC63
:10812400637B13F0300F14D00DF10901E07CADF83E
:1081340008708DF80A70FFF7A5FF11238DF8083039
:108144009DF80A30012102AA61F342038DF80A3036
:108154000E92637B8DF82430A37B8DF825300023A9
:10816400CDE90633089303AB0493A388ADF81C3020
:10817400A368CDF814D01BB1E288ADF81820089399
:10818400A2695AB301A90023ADF804308B70138897
:10819400ADF82C305388ADF82E3053680D91107B18
:1081A4000A93FFF76FFF0DF10501507BFFF76AFF9C
:1081B400937B117A013303F0030341EA4301937A79
:1081C40041EAC301D37A41EA03119DF8063001F074
:1081D4001F0123F01F0319438DF80610E36903B14F
:1081E4000C93334604AA09A92846FFF749FF11B0A6
:1081F400F0BD90DF7047A5DF7047B5DF7047000022
:108204007FB51E4B1E4CE41AE40824040E460346B4
:108214000A4605461B4944F0040002F0C4FE00234C
:108224006A4602A92846ADF80860ADF80A600393CF
:108234000093ADF80430FFF7DCFF0646D8B102F036
:108244008DFC44F0010403460F492A46204602F0FF
:10825400AAFEBDF80020BDF8023052EA030103D0A3
:108264000A49204602F09FFEBDF804201AB10849CD
:10827400204602F08FFE304604B070BD14BB0200ED
:1082840064BB02000ABD020039BD020083BD0200C6
:10829400C2BD020088B14FF002230360FB230371C7
:1082A4004FF40073C3801723038141F6FB3200238C
:1082B400016143818281184670470E20704738B1AE
:1082C400A1F11703B3F5F57F04D2018000207047B4
:1082D4000E207047072070472DE9FF478688054622
:1082E4000C46002E40F02F810388242B00F0D08010
:1082F40024D8112B00F09D80232B00F0FF80102B3D
:108304005BD0A37A002B00F01E81E1880020FFF7E8
:1083140072FF0346002840F004814FF480726281AA
:108324008A4D8B4A8B49AD1AED082D04E28845F03D
:10833400040004B0BDE8F04702F035BE3A2B00F06B
:108344008280552BDDD1824B804DC7888249ED1A3E
:10835400ED082D0445F004083B463246404602F041
:1083640022FEE3887D49A672172F3A4638BF1722AA
:108374009A4228BF1A4622814046009602F01DFE0A
:10838400E1883046FFF739FF38B102F0E7FB744962
:10839400024645F0010002F0FDFDE37A002BB0D166
:1083A4002369002BADD040F6772202922289ADF8E2
:1083B4000C2002A920469847A3E7C37B0A790A73D5
:1083C400012B20D0022B21D0E2882389934212D2A0
:1083D4005F4B5E4D6349ED1AED082D0445F004062C
:1083E4003046002302F0DFFDE1880020FFF703FFA1
:1083F40070B90123E372217B637B8B4281D200201D
:10840400FFF7FEFE7DE70B88E380DDE74B88FBE7A3
:10841400112807D101235449A3720022304602F0E7
:10842400B9FDE8E702F09AFB5049024645F0010025
:10843400F5E74FF40073CB8017230B8141F6FB3330
:108444004E818B815DE74289CB8840489A4228BFA0
:108454001A463F4BC01A172A4FEAD00038BF1722DA
:1084640000040A813346424940F0040002F09BFDB7
:10847400236953B1E27A42B140F67722029222890B
:10848400ADF80C2002A9204698470023638138E701
:108494002F4B2E4DB0F80AA0027AB0F808908789C5
:1084A400B0F80E804A73ED1AED082D0445F004056A
:1084B40033463049284602F076FD2F495246284675
:1084C40002F068FD2D494A46284602F063FD2C4916
:1084D4004246284602F05EFD2A493A46284602F002
:1084E40059FD2369002B3FF40CAF4DF67A2202921A
:1084F400627B8DF80D608DF80C205AE7077A144BD7
:1085040012482149C01AC008000440F004003B4648
:10851400324602F048FD217BA888B94228BF39467B
:108524006EE711280FD002F019FB0949074B5B1ABB
:10853400DB081B040D49024643F0010004B0BDE80A
:10854400F04702F027BD04B0BDE8F08764BB020029
:1085540014BB02006BC0020013BF02004DBF020037
:108564008CBF020018BE020055BE0200A7BE020066
:10857400D8BE0200BBBF0200EABF0200FCBF02007B
:108584000EC002001EC002002EC00200B0DF704701
:1085940066DF704710B5002104464088FFF7F8FFF6
:1085A400034608B9237210BD112801D10123F9E74C
:1085B4006368BDE81040184760B159B10378DE2BF9
:1085C4000AD00B684360DE2303704FF6FF734380C9
:1085D400002070470E2070470820704728B10378A8
:1085E400DE2B04D14180002070470E207047082004
:1085F4007047F0B5054685B00C46002942D00028E6
:1086040040D00B78DE2B3DD182884B889A4204D12E
:108614000B7A13B10846FFF7BDFF2B88112B33D01B
:10862400512B0FD0012B2DD12B7AAA88012B29D1C4
:108634006188914226D12046237205B0BDE8F040FE
:10864400FFF7A8BFAB8866889E421BD1AF79022F83
:1086540018D1AD7B2B1F022B14D8002110226846A1
:1086640003F0ECF9052D14BF4FF4C07300236946E1
:1086740030468DF80070ADF80430FFF787FF08B17D
:108684006368984705B0F0BD6388AA889A4204BF1E
:108694004FF6FF736380F5E7A8DF7047ADDF7047DF
:1086A400AEDF704762DF7047F0B505468BB00C460D
:1086B40000295FD000285DD00388502B35D0572B7C
:1086C4006AD0102B56D181886069002601AA0196D0
:1086D400FFF7AFFC02232189A888ADF80A6002AA3B
:1086E400CDF80CD0ADF80830FFF7D8FF002841D101
:1086F400A369002B3ED00398FFF7D9FC002839D09A
:10870400019E0EB1012333701822002104A803F046
:1087140095F902238DF81030AB88ADF81830A369B1
:108724000594079604A8984724E08188606902AA02
:10873400FFF77FFC1822002104A803F07FF9AB881F
:108744002189ADF81830EB88029A05949942079272
:1087540015D12E8A022E12D162B105F11200FFF753
:10876400A6FC029B40B101221A70A3698DF8106027
:10877400002BD7D10BB0F0BD18700326F5E7A28902
:108784009A42F7D1A369002BF4D005F112020892A2
:108794002A8AADF82420C5E78188606902AAFFF718
:1087A40048FC01460028E5D1029F3B78002BE1D02C
:1087B400A669002EDED0182204A803F03FF9012395
:1087C4008DF81030AB880594ADF81830079704A8DD
:1087D400B047CFE7F0B53B4B8FB002AD04460A4635
:1087E40003F1100C2F46186859682E4603C6083347
:1087F40063453546F7D1002C61D0002A5FD0136859
:10880400A36121463846FFF74DFF002855D1224683
:10881400012512F8023B8DF8063001A92846ADF86F
:108824000450FFF739FF002847D101461D220DF1FE
:108834001B0003F003F922460223ADF8183012F8A6
:108844000C3B8DF81A30BDF824301F4E6088079613
:1088540023F44F6323F00F0343F440632B4306A92F
:10886400ADF824308DF829508DF82A50FFF723FCF9
:1088740018BB01461D220DF11B0003F0DFF8224650
:108884000323ADF8183012F8043B8DF81A30BDF804
:1088940024306088079623F4875323F01F0343F49E
:1088A40080532B43ADF8243006A940F201138DF810
:1088B4002950ADF82A30FFF7FEFB0FB0F0BD0E20B3
:1088C400FBE700BF10C90200FD010100F0B50F462F
:1088D40087B016461C46054618B3406901AA1946D6
:1088E400FFF7A7FBD8B94FF6FF739C421BD0019B3F
:1088F400CBB11B78CBB13388B3F5FF7F17D2AB88EC
:10890400CDF80B008DF80F00ADF8083002A9012353
:108914002046CDE904678DF80A30FFF7C1FE07B0A1
:10892400F0BD0E20FBE70520F9E70820F7E7072054
:10893400F5E7000038B5074C051EA4F1080308BF8D
:108944001C4623682BB11A6822605B682846984746
:10895400F7E738BD943D002020B9054B01225A7039
:10896400FFF7E8BF012802D1014A9070F8E7704789
:10897400843D002020B9034B01225A70FFF7DABF6F
:10898400704700BF843D002038B50E4C2378B3B93E
:108994000D486360A3602361E36000F0E7F80546D7
:1089A40002F00AFD08B900F0EDF801232370074B2B
:1089B400D3F800340BB10123A370284638BD8525B4
:1089C400F5E700BF843D00205D89020000000140FE
:1089D40037B50D4C00230DF107008DF8073001F079
:1089E400BFFCE368013BE360E36833B9074BD3F8AA
:1089F400005415B900F0D8F8A5709DF8070001F0EF
:108A0400D3FC03B030BD00BF843D00200000014012
:108A1400012813B50CD0032820D038B9134B0122F8
:108A2400C3F88020BFF34F8FBFF36F8F02B010BD28
:108A34000F4C00230DF107008DF8073001F090FC76
:108A440023780BB9FFF7A0FFE3689DF80700013313
:108A5400E3600123A37001F0A7FCE7E700F092F8BC
:108A640002B0BDE81040FFF7B3BF00BF00E100E073
:108A7400843D00201FB503788DF8003043680193CE
:108A840083688DF80830C368054A0393054B68462C
:108A940053F8213052F82110984705B05DF804FBD3
:108AA4009C3D0020A03D00201FB503788DF80030C8
:108AB4004368019383688DF80830C368054A0393BB
:108AC400054B684653F8213052F82110984705B0F9
:108AD4005DF804FB9C3D0020A03D0020F0B5194B3F
:108AE40090F800C091F81DE043F82C20164B164670
:108AF4000A6943F82C20154B0C4603F80CE0074692
:108B04000FCC89B06D460FC594E80F0085E80F00BF
:108B1400CDF810C0BEF1000F09D0002E0C4A6946F2
:108B240008BF3246381D00F085FD09B0F0BD002EA7
:108B3400084A694608BF324607F10C0000F058FBAA
:108B4400F3E700BFA03D00209C3D0020983D00209D
:108B5400798A0200AD8A020000F18040002382B0CD
:108B6400036003680193019B02B07047044B024603
:108B7400187918B91A6001229A80704785207047C5
:108B8400A43D0020074B1A68D20704D4C02283F8FE
:108B9400002301221A604FF080430122C3F81825F4
:108BA400704700BF00E100E04FF0804208B50223A7
:108BB400C2F808334FF48270FFF7CEFF0123D3606D
:108BC400D2F81834DB03FBD408BD00004FF0804119
:108BD40010B5D1F8003163B14FF48070FFF7BCFFDA
:108BE4000D4B58790122C1F8082310B95A711B683A
:108BF40098474FF08042D2F8043163B14FF4827049
:108C0400FFF7AAFF0223C2F80833034BBDE8104064
:108C14001B680120184710BDA43D002000F18040CE
:108C240000F5C040002382B0036003680193019BF8
:108C340002B07047800000F1A040D0F8003723F460
:108C44004033C0F80037D0F8003743EA0143C0F896
:108C540000377047054B4FF0FF32072843F82020B8
:108C640084BF1B1883F84820704700BFAC3D002028
:108C740010B5184C94F858304BBB4FF0FF3204F148
:108C8400300122FA03F0C00748BFCA540133202B35
:108C9400F7D10021C8B20131FFF7DCFF0C29F9D16B
:108CA4000D4B00221A600D4BC02183F8061340219E
:108CB40019604FF4BE70FFF7B1FF094B4FF000414C
:108CC400C3F80413012384F85830104610BD08205B
:108CD400FCE700BFAC3D0020003E002000E100E0C6
:108CE40000600040034B93F85800003818BF01207F
:108CF400704700BFAC3D0020F0B53B4E331893F9EC
:108D04003030002B6DDA8F78C7F34007002F0BBF8C
:108D1400082300234FF00C0C4FF0080C634501D1DD
:108D24000420F0BD56F8235001354FEA830442D1A4
:108D340006EB000C5DB246F823208CF8305017B9CE
:108D4400334483F848008B785F0716D4DA0734D5A8
:108D5400830003F1A043D3F8002722F00202C3F8F2
:108D64000027224FC20800F0070C012303FA0CF37A
:108D740017F802C043EA0C03BB548B780A789B07AC
:108D840024D504F1804303F5C0430002D3F8101541
:108D940021F4473121F44071C3F810151204D3F8BB
:108DA400101500F4F85002F4403210430843C3F89D
:108DB40010050020B5E70133B0E74A7800F5E07309
:108DC4004FF0A047920047F82320CAE7A5F1080313
:108DD40046FA83F393F8501041EA821283F8502044
:108DE400E7E708209DE700BFAC3D0020003E0020DF
:108DF40010B51D4C231893F93020072A16DD1444AE
:108E040094F848309B09032B0BD14FF0A043D3F8BF
:108E14001015C14001F001010231BDE81040FFF717
:108E240009BF012B0CBF02210321F6E7D3B2072BA4
:108E340019D8930003F1804303F5C043D3F8100518
:108E440040F00100C3F8100502F14000800080B238
:108E5400FFF7E4FE39B154F8223023B101239340E3
:108E6400024AC2F8043310BDAC3D0020006000404B
:108E74004FF0A043D3F8103523FA00F000F00100BE
:108E8400704700002DE9F34700244E4D01944FF440
:108E94008072012102F1804303F5C0431B68012B5A
:108EA40007D1D5F804330B4203D090B2FFF7B6FED6
:108EB4000C430432B2F5907F4FEA4101EAD1414BB1
:108EC400D3F87C31012B0CD14FF4BE70FFF7A6FE12
:108ED4004FF0A04344F00044D3F820250192C3F896
:108EE4002025E3B2D3B1384F00250126344210D0F7
:108EF400AB0003F1804303F5C043D3F81005D3F866
:108F0400101557F8253023B1C1F30141C0F30420F3
:108F140098470135082D4FEA4606E7D1002C48DA78
:108F2400294C4FF0A047294D4FF00008012615F9B0
:108F3400013F5A1C31D0C3F3C20108316944DAB28B
:108F440011F8041C03F03F0903F0070306FA03F3C6
:108F5400194222D009F5E073484657F82330C3F389
:108F6400014ABAF1020F14BF02210321FFF762FE86
:108F740006FA09F3C7F8203504EB090393F93030F6
:108F840054F823304BB19109032904D0BAF1020FEC
:108F940012D1012901D14846984708F10108B8F1D6
:108FA400040FC4D1D7F820350193C7F82035002B1E
:108FB400B9D102B0BDE8F087BAF1030FEDD10229AF
:108FC400E8E700BF00600040AC3D0020FB3D00200E
:108FD400014B1B68184700BF083E00200D4B984208
:108FE40037B50C4611D100230DF107008DF8073079
:108FF40001F0B6F9084B1D7915B901221C601A71EC
:109004009DF8070001F0D0F915B9002003B030BD78
:109014001120FBE700200040083E002000234350BD
:1090240082B043580193019B02B070470A4610B5C1
:109034004FF48E71FFF7F2FF136A9168C95C136AEB
:1090440001331362C0F81C1510BD8B690A4610B5B4
:109054004FF4847123B9FFF7E1FFD0F8183510BD40
:10906400FFF7DCFF536AD168D0F81805C854536A77
:1090740001335362F3E700001FB501238DF800307C
:10908400044BCDE90110D3E900126846904705B0BE
:109094005DF804FB103E002008B54FF49271FFF711
:1090A400BDFF4FF48471FFF7B9FF0123036008BDCE
:1090B40030B54D4DD5F804339A0585B051D5D5F862
:1090C4002431002B4DD04FF492712846FFF7A6FFB0
:1090D4004FF40173C5F80833444B93F829200AB9B7
:1090E40001226A60404902228DF80020D1F88024D0
:1090F400C1F8802403929A690292DA6801920022EC
:10910400C3E906226846D3E9001290473648D0F8EE
:109114001C315BB1354A5169136A99424DD992F8B1
:109124002830002B49D11146FFF780FF2E48D0F894
:109134004431002B56D04FF4A271FFF76FFF2B4B35
:1091440093F829200AB1012202609A69002A49D0C1
:10915400586AD96800229A6105B0BDE83040FFF72B
:109164008BBFD5F804335B07D0D5D5F80831002B75
:10917400CCD01E4C1C482146FFF767FF636AA269E6
:109184009A42C3D1E369E1684BB1A3612369E36007
:109194000023606AE3616362FFF76EFFB6E794F849
:1091A40029300BB901236B600F4B4FF40172C3F8E4
:1091B40008230023606AA361EEE70B484FF48E7125
:1091C400FFF72CFF5369002BB0D0516902910023A3
:1091D40091688DF80030019153616846D2E900131B
:1091E4009847A3E705B030BD00200040103E0020A2
:1091F4002DE9F843524D90F804802C2303FB0853C7
:10920400064693F82A300C469146002B40F0948091
:109214004C490068FFF7E2FE0746002840F08E80C4
:1092240021683368481C0BD04FF0A04001228A40CB
:10923400C0F8082501F5E0724FF0030C40F822C095
:109244006068421C1FBF00F5E0724FF0A04C4FF065
:10925400000E4CF822E0A269C3F8242594F814C047
:10926400627DBCF1010F4CEA0202C3F86C25C3F81D
:109274001405C3F80C151DD1A1684A1C1FBF01F5C4
:10928400E0724FF0A0404FF0000C40F822C0E268BA
:10929400501C0BD04FF0A04C01209040CCF8080596
:1092A40002F5E0704FF0030E4CF820E0C3F80825F7
:1092B400C3F810152C2303FB08F3EA18C2F8049032
:1092C4002269EA50B9F1000F1ED03068227F4FF4B2
:1092D4008E71FFF7A3FE4FF4A271FFF79FFE1A4BA6
:1092E400C0F8043340F307335201002BD2B21EDB23
:1092F4001649C81880F800230122580903F01F03F7
:1093040002FA03F341F8203033680422C3F800253D
:109314002C2303FB08530022C3E9062283F82920E7
:109324005A61012283F82A203846BDE8F8830849A7
:1093340003F00F03CA54E7E70827F5E71127F3E71B
:10934400103E0020B59002008000020000E100E021
:1093540014ED00E00279044B2C2101FB023358691F
:10936400003818BF01207047103E00202DE9F84F47
:10937400074690F8048089469346FFF7EBFF0446BE
:10938400002839D11E4E2C2508FB056A4FF48E7136
:10939400CAF814B0CAF820008AF828003868CAF855
:1093A4000890FFF73BFE012383605146FFF73EFE22
:1093B400DAF8043055460BBBDAF814402B6A9C42A9
:1093C40010D8D0F81C31002BFBD00123C36000203F
:1093D4002C2303FB086600237361BDE8F88F95F81E
:1093E40028303BB9D0F81C31002BF8D05146FFF798
:1093F4001DFEE3E70F20EBE71120EEE72046ECE744
:10940400103E00202DE9F843374C06792C2303FB4A
:10941400064305465F6827B103684FF40170C3F83B
:1094240008032C2303FB0643986950B1D86900282C
:109434003DD027B12B684FF40172C3F804231120E7
:1094440033E09A61D9605862024601462C2303FB3B
:109454000643DA6193F82930286813B909B9FFF78C
:109464001BFEBFBB4FF4A2714FF02C08FFF7D6FDD3
:1094740006FB0847B8462868D0F82421D0F808111C
:10948400D0F84431194315D1002AF4D000232C21FB
:1094940001FB06440021A1610ABB13BB94F8291007
:1094A4002B680122A1B11A600020BDE8F88319617C
:1094B4000121CBE753EA0209E9D13946FFF7C5FD9B
:1094C400D8F82430D8F818209A42D4D84A46DDE790
:1094D4005A60E9E74FF40173C0F80433E4E703206A
:1094E400E3E70F20E1E700BF103E002000234350D4
:1094F40082B043580193019B02B070471FB501230A
:109504008DF80030044BCDE90110D3E90012684610
:10951400904705B05DF804FB3C3E00207FB5434A0C
:10952400D2F82461002E60D010464FF49271FFF7F8
:10953400DDFF02238DF80030D2F88034C2F8803485
:109544000393D2F83C350293394BDA680192002236
:10955400C3E906226846D3E9001290473348D0F89D
:10956400443173B14FF4A271FFF7C0FF304B9A69D5
:109574003AB10022D0F83C05D968C3E90622FFF7C6
:10958400BDFF2A48D0F82031ABB14FF49071FFF7FA
:10959400ADFF0123C360264B5A6962B1D0F84C1564
:1095A4000291002299688DF8002001915A61684661
:1095B400D3E9001290471D48D0F858319BB14FF4BD
:1095C400AC71FFF793FF1A4B5A6962B1D0F84C158E
:1095D4000291002299688DF8002001915A61684631
:1095E400D3E90012904704B070BDD2F81031002BBB
:1095F400B4D04FF488711046FFF778FF0C4BD2F8C3
:109604003C0599698842A9D1DC69D96864B1D2F86A
:10961400005225F02005C2F800521A699C61DA60F4
:10962400DE61FFF76BFF99E79C61FAE700200040D9
:109634003C3E00202DE9F843574D90F80480242344
:1096440003FB0853064693F820300C469146002B42
:1096540040F09E8051490068FFF7C0FC074600288F
:1096640040F0988021683368481C0BD04FF0A0402C
:1096740001228A40C0F8082501F5E0724FF0030C7E
:1096840040F822C06068421C1FBF00F5E0724FF032
:10969400A04C4FF0000E4CF822E0A269C3F8242538
:1096A40094F814C0627DBCF1010F4CEA0202C3F8C5
:1096B4006C25C3F80C15C3F814051DD1A1684A1C08
:1096C4001FBF01F5E0724FF0A0404FF0000C40F8CE
:1096D40022C0E268501C0BD04FF0A04C01209040F7
:1096E400CCF8080502F5E0704FF0030E4CF820E0CA
:1096F400C3F80825C3F81015242303FB08F3EA185C
:10970400C2F804902269EA50B9F1000F2AD03068F7
:10971400227F4FF48871FFF7E9FE4FF49071FFF751
:10972400E5FE4FF49271FFF7E1FE4FF4A271FFF7EB
:10973400DDFE4FF4AC71FFF7D9FE194BC0F80433CA
:1097440040F307335201002BD2B21CDB1549C81871
:1097540080F800230122580903F01F0302FA03F3DF
:1097640041F8203033680822C3F80025242303FB82
:1097740008550023C5E906336B61012385F82030C1
:109784003846BDE8F883084903F00F03CA54E9E7F3
:109794000827F5E71127F3E73C3E00202195020056
:1097A4001003420000E100E014ED00E00279044BF4
:1097B400242101FB02335869003818BF0120704787
:1097C4003C3E002001F06043B3F1005F2DE9F04717
:1097D40081460E46924636D190F80480FFF7E6FFA4
:1097E400044690BB1B4FD9F80020242505FB0875BF
:1097F4004FF490711046C5F814A0AE60FFF776FEE2
:109804004FF4AC71FFF772FE6B69C2F84465C2F89D
:109814004835012393606B68CBB9D2F82031D2F874
:1098240058010343F9D060B90123D360D2F8583109
:10983400002BFBD0242303FB087700237B61BDE8C6
:10984400F0870F20F6E71020F9E71120F7E720460C
:10985400F5E700BF3C3E00202DE9F84301F06043EA
:10986400B3F1005F0E4667D10779344D242303FB1F
:109874000753D3F80480B8F1000F04D003684FF401
:109884000471C3F80813242303FB0753996969B1CE
:10989400D96900293ED0B8F1000F04D003684FF411
:1098A4000472C3F804231120BDE8F8839A61DE60D2
:1098B40089462423046803FB07532046D9614FF4E7
:1098C4008871FFF713FE4FF4A271FFF70FFEC4F87F
:1098D4003465C4F83825B9F1000F20D10123236081
:1098E400B8F1000F22D1D4F81021D4F84431D4F8BF
:1098F40024011A4302D10028F5D01346242202FB86
:1099040007550022904218BF03209342AA6118BF52
:109914000F20C9E71E6111464FF00109C9E7D4F8C9
:10992400003243F02003C4F80032D9E74FF4047343
:10993400C4F804330020B7E71020B5E73C3E00200C
:1099440010B5C307064A4FEA500048BF0901145C2A
:109954004ABF0F23F023C9B223401943115410BD49
:10996400603E002010B5094B1978094B1B68002292
:10997400914201DC002005E013F83240844202D118
:1099840003EBC20010BD0132F2E700BF7C3E0020B1
:10999400803E002070B504460D46FFF7E3FF30B16A
:1099A400436823B129462046BDE87040184770BD7E
:1099B400034B044819680022490800F089BA00BF23
:1099C400783E0020D031002010B5C0B2FFF7CAFFA6
:1099D40004460078FFF74CFA63785A1E5342534109
:1099E400834208D1044AD2E90032134303D1BDE8CB
:1099F4001040FFF7DDBF10BD703E002037B54308AF
:109A0400374AD35CC2074CBF1B0903F00F0304465B
:109A14000D46042B25D8DFE803F00326303D410032
:109A2400F9B10121FFF78CFF00230DF107008DF838
:109A3400073000F095FC0122A4F12003C4F12000BA
:109A4400284922FA00F002FA03F30343A240D1E9C1
:109A5400004014431843C1E900409DF8070000F09A
:109A6400A3FC03B030BD003918BF012149002046D2
:109A740003B0BDE83040FFF763BF49B10321FFF7EE
:109A84005FFF0121204603B0BDE83040FFF782BFED
:109A94000121ECE70029E4D10421E8E709B103211D
:109AA400E5E7FFF74DFF29462046FFF773FF0DF169
:109AB40007008DF8075000F053FC0122A4F12003A5
:109AC400C4F12000074922FA00F002FA03F3034329
:109AD400A240D1E9004024EA020420EA0300BAE7E4
:109AE400603E0020703E00202DE9F041124E134FDD
:109AF40000243378A34208DC114AD2E9003213432C
:109B040018D0BDE8F041FFF753BF3D6805EBC4082A
:109B140015F83400FFF7ACF998F801305A1E534297
:109B24005341181A4142414115F83400FFF766FFCA
:109B34000134DEE7BDE8F0817C3E0020803E002059
:109B4400703E0020092AF7B505460C4616463ED954
:109B5400FFF7C8F8E8B11F4B1F481D601F4B204F8B
:109B64001C70204B002110221E6001F067FF1E4B69
:109B740000200021C3E90001013CE4B20326FF2CCC
:109B84000DD11A4A1A48002103B0BDE8F04000F094
:109B94008DB9FFF76DF80028DDD003B0F0BD9DF856
:109BA400063015F834008DF8046005EBC40223F088
:109BB40007038DF8063001A993788DF805303A46ED
:109BC400FFF79AF8013CE4B20028D8D0E5E7072073
:109BD400E3E700BF803E0020603E00207C3E002082
:109BE400CD990200783E0020703E0020ED9A0200DC
:109BF40020C9020070B5084D084E00242B789C4201
:109C040001D3002070BD3368012113F83400FFF73D
:109C1400EFF80134F2E700BF7C3E0020803E0020D4
:109C24001FB50021039001AA44F20100CDE90111FE
:109C340000F004F805B05DF804FB000038B572B616
:109C440001F022FA01F05EF80028FBD1104B114C10
:109C5400114D1249E41AE408240444F0010001F00F
:109C640095F9D5F8F030DB0700D500BE0C4944F077
:109C7400020001F08BF9BFF34F8FEA68094B02F43D
:109C8400E0621343EB60BFF34F8F00BFFDE700BFFB
:109C940014BB02003CBB020000ED00E0F2C0020075
:109CA400FEC002000400FA0510B5034649B152B1E2
:109CB400541E14EA020006D1986019609C80D86092
:109CC40010BD0E20FCE70920FAE710B58468C268CD
:109CD4008388121B934208D3C26813400268D1548C
:109CE400C3680133C360002010BD0420FCE7826810
:109CF400C3689A420AD08268838813400268D35C9E
:109D04000B7083680133836000207047052070471F
:109D140010B5D0E90242D1E90203A04293412CBF1D
:109D24000120002010BD000008B50A4800F06DFCB9
:109D3400094AD2E90031C018084BD3E9002341F1A4
:109D44000001904271EB030303D210F1807041F1E2
:109D5400000108BDF0310020F83E0020F03E002054
:109D6400294B73B51E7804461EB90026304602B04E
:109D740070BD0028F9D0FFF7D7FFD4E90223904241
:109D8400994139D300230DF107008DF8073000F015
:109D9400E7FA23692BB94FF0FF324FF0FF33C4E9E0
:109DA40002239DF8070000F0FFFAD4E90530984734
:109DB40000250DF107008DF8075000F0D1FA236952
:109DC400C3B1D4E90212B2F1FF3F08BFB1F1FF3FC2
:109DD40005D05B1842F10002C4E9023235469DF811
:109DE400070000F0E1FA002DBFD00848214600F03A
:109DF40074FEBBE71D46F2E7B3F1FF3F08BFB2F1C3
:109E0400FF3FB2D0F1E700BF003F002024C90200A9
:109E140037B505460C460A4801A900F02AFC68B18A
:109E24000570446001A9064800F04DFC10B90020FB
:109E340003B030BD034800F0EDFBF8E70420F7E77A
:109E4400883E0020F031002013B5114B11491868E9
:109E5400019008231048582200F0F8FB044698B9F2
:109E64000E4A0F4801A900F0C1FA044660B90C4833
:109E7400012100F0ADFB01230A4A0948194600F00C
:109E84000FFB094B01221A70204602B010BD00BF1F
:109E940030C90200983E0020883E00208D9F0200B9
:109EA400F0310020FFFF7F00003F002030B56AB191
:109EB40003684FF0FF344FF0FF355A614A1E514298
:109EC400C3E9024551411961002030BD0720FCE778
:109ED400F7B5044600250DF1070017460E468DF828
:109EE400075000F03DFAD4E90223B3F1FF3F08BF65
:109EF400B2F1FF3F07D1FFF717FF301841F100011E
:109F0400C4E9020101259DF8070000F04DFA55B19E
:109F14002369A76103B126612146002003B0BDE88F
:109F2400F040FFF775BF284603B0F0BD37B50546CE
:109F340000240DF107008DF8074000F011FAD5E96F
:109F44000223B3F1FF3F08BFB2F1FF3F1FBF4FF041
:109F5400FF324FF0FF33C5E9022301249DF80700C7
:109F640000F022FA34B12946012003B0BDE83040A4
:109F7400FFF74EBF204603B030BD0000014800F09B
:109F840044BB00BFF03100202DE9F743064600F042
:109F940027FB40B1624AD2E9003113F1807341F1E9
:109FA4000001C2E900310021304600F028FB38B13D
:109FB4005C4C236823B12068FFF7D2FE00232360A2
:109FC4000121304600F01BFB20B1FFF7ADFE564BDC
:109FD400C3E900015548534C01A900F084FB4FF03C
:109FE400FF384FF0FF39A0B9DFF844814D4D4046AA
:109FF40000F089FD002800F08880D0E90223B3F145
:10A00400FF3F08BFB2F1FF3F35D1404600F075FD78
:10A01400EDE70378012B20D0022B08D1444D2846CC
:10A0240000F06BFD20BB434B01221A700CE05BB9BE
:10A034004168D1E90223B3F1FF3F08BFB2F1FF3F0A
:10A0440002D03B4800F049FD01A9384800F076FBF6
:10A0540001A9364800F047FBC5E7416823689942E7
:10A0640002D100232360EFE7314800F04FFDEBE716
:10A07400C0E90289D3E7296891B12968D1E90201CD
:10A0840082428B412FD22B68D3E90223B3F1FF3FE5
:10A0940008BFB2F1FF3F03D02968404600F01DFD20
:10A0A400404600F02AFDD0E902490746FFF73CFE8E
:10A0B400201A69EB0109012879F1000918DBB0F5D0
:10A0C400350F13D3FFF75AFF1B4A02441B484FF4C2
:10A0D4009603002100F004FA90B92B6813B93046B6
:10A0E40000F0D6F92F6003B0BDE8F0832246EDE717
:10A0F4001248002100F079FA3846FFF731FE01E0FA
:10A104000D28F9D000232B6071E7064B1B68002B48
:10A11400E9D1304603B0BDE8F04300F0BDB900BF5B
:10A12400F83E0020043F0020F03E0020883E00203E
:10A1340024C90200003F0020FFFFB400F0310020DA
:10A144000648074A03780749D35C012213B1043057
:10A15400FFF782BB0C30FFF755B900BFF831002080
:10A16400983D0020293F00200648074A0378074904
:10A17400D35C012213B10430FFF724BB0C30FFF78A
:10A18400F5B800BFF8310020983D00202A3F002098
:10A1940037B50578012D05D0022D27D0002D30D0FC
:10A1A40003B030BD037A13B9FFF7CAFFF8E7436879
:10A1B4001B4C19782046FFF788FD80B18DF80050BC
:10A1C4000190184B68461B689847A168E368A28809
:10A1D4005B1A9A42E8D2144B01221A70E0E7A26893
:10A1E400E3689A42F1D08DF80000EAE7C3688DF87D
:10A1F40000500193FFF7A4FF0A4B68461B68984779
:10A20400CEE70A490A48FFF772FD20B903B0BDE85A
:10A214003040FFF7A9BF03238DF80030ECE700BFFF
:10A22400183F00202C3F0020283F00202A3F002018
:10A23400083F0020F0B51F46234B89B004461A603E
:10A244000D4600293DD08A8820480968FFF72CFD77
:10A25400002834D1AA89A9681D48FFF725FD0028E4
:10A264002DD11C4E0FCE6D460FC596E80F0085E824
:10A274000F0063690693237C174A18488DF81C70F5
:10A28400003B18BF01238DF81430637C002B0CBFF6
:10A2940000230E238DF81530E3680293A36803931B
:10A2A40023680193694663680093FEF717FC30B98D
:10A2B4000B4B18702368013301D0FFF741FF09B03D
:10A2C400F0BD0720FBE700BF2C3F0020183F002013
:10A2D400083F002034C9020095A10200F831002093
:10A2E400283F002070B5084D014608482E78FFF736
:10A2F400FEFC044636B100232B70FFF721FF08B1A2
:10A30400FFF78EFC204670BD283F0020183F002038
:10A3140010B501460E48FFF7D8FC0446A8B90D480D
:10A324000D4A0378D35C63B10430FFF73FFA60B998
:10A334000A490748FFF7DBFC38B9BDE81040FFF7CE
:10A3440013BF0C30FFF706F8F1E7204610BD00BF3D
:10A35400083F0020F8310020983D00202A3F0020CB
:10A3640070B5EFF3108672B60C4A9468012384B971
:10A3740093600B4B0B4DD3F8801029401160C3F848
:10A384008050D3F8841051604FF0FF32C3F884201A
:10A394002346037006B962B670BD00BF303F00208B
:10A3A40000E100E0FC06FFBD084B9A6810B55AB105
:10A3B40050B9EFF3108172B6054A1C6814605C68EA
:10A3C4005460986001B962B610BD00BF303F0020F0
:10A3D40000E100E00346405882B028B100225A5000
:10A3E4005B580193019B012002B0704770B5204B6C
:10A3F4004579204E43F825201F4B204A06EBC5051E
:10A404009B1ADB08044618042B7933B140F0020090
:10A414001B4900F0BBFD082070BD23680A88C3F8FF
:10A42400082594F904308A78002B4FEA4212D2B2FC
:10A4340019DB1449CD1885F8002301225D0903F0C6
:10A444001F0302FA03F341F82530637906EBC302D4
:10A454000121117140F003000B4946F8334000F02C
:10A4640095FD0020D8E7094903F00F03CA54ECE72F
:10A47400443F00203C3F00204CBB020014BB0200C0
:10A4840015C1020000E100E037C1020014ED00E054
:10A49400036801221A607047036801225A607047FA
:10A4A40073B501F15005AD000068ADB24FF48034CE
:10A4B4008C400026C0F80843C0F84843465101F5D3
:10A4C400A8714559019522F07F42019D40F8212051
:10A4D400C0F844430BB1C0F8044302B070BD00009F
:10A4E4002DE9F74F0D4622F07F4402684FF4803780
:10A4F40005F150068F408046B60002EB8500C2F895
:10A504004873B6B2C2F80873D2F8041599464FF0EE
:10A51400000BD0F84035C0F8401542F806B05B1A7D
:10A524009259009223F07F43012B009A4FEA850A47
:10A534000CD1264B4FF4806043F001039847D8F8C0
:10A54400003043F806B09B590193019BD8F80020D2
:10A55400D2F80465C2F84473A31B23F07F43012B94
:10A564001CD11A4B05F5A875013443F0010342F8D8
:10A5740025404FF480609847D8F80030D3F804356C
:10A584009E4209D1D8F800300020C3F84473C3F8C0
:10A59400047303B0BDE8F08F0D20FAE79244C9F1CB
:10A5A400FF13CAF84045D2F80405211A013921F0F5
:10A5B4007F4103F57F438B42EED30029E2D101347E
:10A5C400CAF84045D2F804359842DAE760C9020077
:10A5D40003680222C3F8442309B1C3F80423704773
:10A5E40000684FF48271FFF7F5BE4FF4803303FA2D
:10A5F40001F10368C3F84813C3F8081370475031D6
:10A604008900006889B2FFF7E5BE0368D3F8040542
:10A614007047000090F90430002B09DB5A0901212E
:10A6240003F01F03994002F14003024A42F8231049
:10A63400704700BF00E100E0024B034A1B6810684A
:10A64400184700BF443F00203C3F002010B561B1D3
:10A65400B2FBF3F403FB1424A4B244B9C0E900141C
:10A6640084608281C381204610BD0E20FCE709204E
:10A67400FAE737B550E8013F9DB2C489254484897F
:10A68400A54228BF2D1B0489A54202BFBFF32F8F0B
:10A69400002207E0C5EA030540E80154002CE9D193
:10A6A4004FF001028DF803200193019A0A609DF88E
:10A6B400031001F0FF0321B1006810FA82F003B027
:10A6C40030BD1846FBE70A884B889A4209D150E806
:10A6D400012FC2EA024240E80123002BF7D10120F6
:10A6E40070470020704737B550E8023F1FFAA3F5C2
:10A6F400C488A54202BFBFF32F8F00220DE0C48996
:10A7040025448489A54228BF2D1BC3EA054540E89A
:10A714000254002CE8D14FF001028DF8032001937C
:10A72400019A0A609DF8031001F0FF0321B100684B
:10A7340000EB124003B030BD1846FBE70A884B8893
:10A744009A4209D150E8022FC2EA224240E8022389
:10A75400002BF7D1012070470020704701F01F0241
:10A764004B090121914000EB830000F01EB801F079
:10A774001F0301229A404B0900EB8300D14300F0F0
:10A784002CB84B0901F01F0150F82300C84000F019
:10A794000100704710B5034653E8000F0A4643E82A
:10A7A400002494F0000FF7D110BD10B5034653E810
:10A7B400002F42EA010043E8000494F0000FF6D1B0
:10A7C40010BD10B5034653E8000F00EA010243E848
:10A7D400002494F0000FF6D110BD10B5034653E8E1
:10A7E400002F02EA010043E8000494F0000FF6D1C0
:10A7F40010BD10B5034653E8002F02EB010043E8F7
:10A80400000494F0000FF6D110BD10B5034653E8D0
:10A81400002FA2EB010043E8000494F0000FF6D1EE
:10A8240010BD0121FFF7C1BF0021FFF7CABF10B55A
:10A8340090B1D0E9012301689B1ADBB20A60013BA5
:10A84400DBB2FF2B026802D10020107110BD116829
:10A854004C1C14600B70F2E70E20F7E737B5054681
:10A8640000240DF107008DF80740FFF779FD2A68F1
:10A87400696813688B420ED9591E116013F8013CA4
:10A88400288AEC6800FB0344AB685B1A1179DBB2DD
:10A89400994238BF13719DF80700FFF785FD2046E4
:10A8A40003B030BD37B5054600230DF107000C4653
:10A8B4008DF80730FFF754FD2A681368591C11609E
:10A8C400EA68A41A2A8AB4FBF2F41C709DF8070003
:10A8D400FFF76AFD03B030BD2DE9F84FB0F806A0CC
:10A8E4004579D2F800B09DF828900AFB05F5043D9F
:10A8F40088460BEB0301A94203F1040488BFA5EBCE
:10A90400030BB4FBFAF607460AFB1644C2F800B080
:10A914004EB9AAEB04055D4528BF5D46BBF1000FA7
:10A9240004D1BDE8F88F3F68013EF1E7043408EB39
:10A9340006003C442A46B9F1000F0DD02146ABEB8A
:10A94400050B01F049F8DA452E443F6855464FF0AF
:10A95400000428BF5D46E1E701462046EFE7FFF724
:10A9640066BFF8B546790146721E05460023934238
:10A974002D6803D30024A64202D8F8BD0133F6E7BC
:10A984000F682846FFF78EFF01343946F3E72DE9B7
:10A99400F041078ACD1C0646FFF760FF043F3D44A3
:10A9A4000446B5FBF7F5D0B14FF48073EDB2C78020
:10A9B4008380013D066080460027AF4210D23046B6
:10A9C400FFF74CFF40B16379013363710137C8F875
:10A9D400000006608046F0E72046FFF7C2FF00242F
:10A9E4002046BDE8F08101210430FFF702BF10B515
:10A9F400012104460430FFF708FFC0B220B9204605
:10AA0400BDE81040FFF7ADBF10BD1FB50392002293
:10AA1400009203AAFFF760FF05B05DF804FB41DF75
:10AA240070470000064B10B500241C70054B1C60D9
:10AA3400BFF35F8F0449054800F03BF8204610BD82
:10AA4400503F0020543F002068C90200483F0020C6
:10AA540007B500230DF107008DF80730FFF780FCE0
:10AA6400F1EE103A23F09F03E1EE103ABFF35F8F4B
:10AA74000A4B4022C3F884219DF80700FFF794FC99
:10AA840000F09AFC20B103B05DF804EBFFF7C7BFF8
:10AA940020BF40BF20BF03B05DF804FB00E100E02D
:10AAA400836800225A60C3E904229A60DA601A605B
:10AAB4007047D1E90032934208BF0023016043602C
:10AAC4007047436843B10268916852680B449342EB
:10AAD400436004BF00234360704770B54468064672
:10AAE4000D46206818B1B3682946984718B92368F9
:10AAF4002B60256070BD2468F3E74368186808B1CB
:10AB040002681A6070474368186870474368186899
:10AB140000B97047884203D102681A600120704767
:10AB240003460068F4E7000010B50B4AA2F59473DD
:10AB34009A4201D800200CE0D11A091103EBC10498
:10AB440053F83110814205D802D204F10803EFE72B
:10AB5400606810BD2246EBE79CCA020008B5FFF707
:10AB6400E3FF024B002808BF184608BD9CCA020038
:10AB74007047037813F0040215D003F00303012B8C
:10AB840003D0022B09D0012070470B6802880233DE
:10AB9400C2F3831213440B60F5E70B684288023357
:10ABA40003EB9213F7E71046704700002DE9F04FCE
:10ABB400434C87B0884600230546871C0DF10700E7
:10ABC40016468DF80730FFF7CBFB6268C8F8002003
:10ABD400A36803F580739B1A04F21C4804F5836A86
:10ABE40004F21449BB4218D30021002E64D005F0AE
:10ABF4000F05AD0145F0050565F30F0163689DF888
:10AC04000700DAB203323B4444F822106360FFF7D2
:10AC1400CBFB012007B0BDE8F08F01214046FFF7D0
:10AC2400E8FD5046FFF7FDFD4846FFF7FAFDA06832
:10AC34000290C0B2033004EB800002A9FFF799FF31
:10AC440020BB029BDAB204EB8202D16803919A1C06
:10AC54000133DBB204EB83030292D3F80CB001F0AE
:10AC64000303012B20D0022B13D083464846FFF761
:10AC7400DBFD08B1029BA36059464046FFF7B9FDCE
:10AC8400A368626803F580739B1AABE79DF808001C
:10AC9400D0E7BDF80E30C3F3891303334FEA1B4BDF
:10ACA40002EB93030293E1E7BDF80C30C3F3831383
:10ACB4004FEA1B4B1344F5E7AD0545F006019DE74C
:10ACC400583F0020064B074810B500221A70FFF7C2
:10ACD40046FE044610B90448FFF7E2FE204610BDC4
:10ACE400583F002000BB0200B0CA020070470000B9
:10ACF400034BD3E90130C31A58425841704700BF8F
:10AD0400583F00202DE9F04387B0FFF7F1FF0028FA
:10AD140074D1744CC4F81804BFF34F8FA068029028
:10AD2400C0B2033004EB800002A9FFF722FF029BAC
:10AD340018B1D4F81824002A5CD0DAB29F1C01336D
:10AD440004EB8202DBB204EB8303D268DB68049376
:10AD540002F00303022B0392029758D1BDF80E3080
:10AD64006148C3F389184646502E28BF502666F31F
:10AD74008F1306F10801ADF80E30FFF708FE054603
:10AD8400002800F09980FFF72EFE002303A9082273
:10AD94002846FFF73AFEFB43DBB20133F9B2033135
:10ADA400B6EB830F4FEA830904EB81012CD9082306
:10ADB4004A46A6EB09062846FFF727FEF6B24B499A
:10ADC40009F10803324608F10308284607EB9807FF
:10ADD400FFF71BFE0297D4F81834D4F81064002B44
:10ADE40055D02846FFF703FEFFF782FF80F00100ED
:10ADF400C0B204E062689A4204D8A260002007B09E
:10AE0400BDE8F083D8B28CE708233246DBE7012B98
:10AE140052D1BDF80C303448C3F38311062928BF3E
:10AE2400062161F38913023101F00F018900ADF8A5
:10AE34000C30FFF7ACFD054600283DD0FFF7D3FDED
:10AE44000023082203A92846FFF7DFFD0026BDF8EA
:10AE54000C20C2F38312B300B24203F10803BAD93F
:10AE640002994A1CC9B20331029204EB8101042203
:10AE74002846FFF7CAFD0136E9E7F3685B7923B199
:10AE8400336829461B6830469847F3681E68002ECD
:10AE9400F3D12846FFF7ABFD0DF107008DF80760ED
:10AEA400FFF75EFAD4F818340BB9029BA3609DF83F
:10AEB4000700FFF779FA97E7D4F8104454B90C4B1C
:10AEC4000C480D49C01AC008000440F0020000F00C
:10AED4005DF889E7236820469B689847E3681C6807
:10AEE400ECE700BF583F002000BB0200643F002095
:10AEF40014BB02003CBB020015C502002DE9F34758
:10AF040004460E46924601A9012218469946FFF7C7
:10AF14004DFE1C4F10B3019D4FF00008AA1CC845FC
:10AF240008EB020125D118480021FFF733FC80F318
:10AF34001000000440EA1440E4006B1C04F03804E0
:10AF4400DBB2EDB244F0010407EB8303033544EABA
:10AF5400881444EA8624D86047F825403B781BB11E
:10AF6400FFF7D0FE0028FBD1FFF7C0FE02B0BDE81A
:10AF7400F087C9B207EB81015AF82830CB6008F199
:10AF84000108CCE7583F00207443002000231A46F0
:10AF9400FFF7B4BF07B50123019201AAFFF7AEFF83
:10AFA40003B05DF804FB07B5CDE9002302236A462C
:10AFB400FFF7A4FF03B05DF804FB1FB5CDE901233F
:10AFC400069B039301AA0323FFF798FF05B05DF8DE
:10AFD40004FB00002DE9F7430446D01C88461646BE
:10AFE40001A900228008FFF7E1FD254D80B3019FF0
:10AFF400B81C0190C0B2C0F58073B6EB830F00F1AA
:10B0040003004FEA830905EB800028D83246414605
:10B0140000F0E2FC1B480021FFF7BCFB80F31000AA
:10B024007B1CDBB205EB8303220CFFB242EA004235
:10B034000337DA60E30055F8272003F0380343F0C0
:10B04400020343EA865302F47C12134345F8273083
:10B054002B787BB9FFF74AFE03B0BDE8F0834A467C
:10B06400414600F0B9FCA6EB090208EB090105F121
:10B074000C00CDE7FFF746FE0028FBD1EAE700BF4E
:10B08400583F00207443002038B5084B0125D3F8FD
:10B0940010441D7004B938BDE3685D71236820460F
:10B0A4005B689847E3681C68F4E700BF583F0020DA
:10B0B4000369C26893429CBF81685B18013B981A7C
:10B0C40070472DE9F041D0E902840546A8EB040657
:10B0D4004068964220440F46144404D900F07CFC96
:10B0E400EC60BDE8F0813246A4EB080400F074FC87
:10B0F40068682246B919F1E72DE9F843C5680646A0
:10B10400894617464FF000083369B46870689D4259
:10B1140028BF1B19641BBC4203F1FF3328BF3C4604
:10B124005B1B9C4228BF1C4649462844224600F02B
:10B1340053FCB3682544AB4208BF00253F1BA04421
:10B14400A144F560E0D14046BDE8F88310B5114C48
:10B15400114AA2610223C4E90433104BE361A264DF
:10B164004FF400730E4A0F492362E2640023102255
:10B17400E01DA3626362E362A3656365E365226520
:10B1840000F012FC0849204600F00EFC2023A371B5
:10B1940010BD00BFF04600202AC50200F044002084
:10B1A400E044002033C5020037C50200F8B5144B53
:10B1B400182700FB07751D4407FB00330E46DB6AA6
:10B1C400012B14460AD0022B14D023B92846FFF7CA
:10B1D4006FFF844208D900242046F8BD2846FFF7B3
:10B1E40067FF844228BF0446224631462846FFF7BB
:10B1F40068FFF1E72846BDE8F840FFF77DBF00BFD0
:10B20400F046002073B50E4B1B7804460D461646D7
:10B214000BB9FFF79BFF00230DF107008DF80730F2
:10B22400FFF79EF8324629462046FFF7BFFF044643
:10B234009DF80700FFF7B8F8204602B070BD00BFC4
:10B24400F046002010DF7047F7B5154B154C164932
:10B25400164FE41AE408240444F0040402460646A3
:10B264002046FFF797FE12496846FFF722FC019D2E
:10B274000DB9284612E0D5E90031304698472A46F0
:10B2840038B120463946FFF785FE6846FFF719FCBA
:10B29400EDE720460749FFF77DFE112003B0F0BD1E
:10B2A40014BB02006CBB02003EC5020054C5020080
:10B2B400D4CA020074C502000E4A0F4B13B59B1A80
:10B2C400DB081B040D490246044643F00400FFF763
:10B2D40061FE0B496846FFF7ECFB019B0BB902B01A
:10B2E40010BD2046D3E9002190476846FFF7E9FBEB
:10B2F400F3E700BF14BB02006CBB020097C5020059
:10B30400C8CA02000B4991F81623EC2352091341D1
:10B31400DB0706D5084B9A683AB94FF480030B60F3
:10B32400704742F20200FEF77BBC1A6842F48002C6
:10B334001A60704700E100E0303F0020F7B5194F74
:10B344003C7864BB184E012520463570FFF77CFF1E
:10B35400112821D02046FFF7AFFF144B8DF803408E
:10B36400186801900DF10300FEF7FAFF104901A8D7
:10B37400FFF768FF0446B0FA80F0400938709DF882
:10B384000300FFF711F83CB90A4B34701C70FFF747
:10B39400B9FF2846FFF790FF204603B0F0BD08240C
:10B3A400FAE700BF6A47002068470020E0CA0200AD
:10B3B400419C020069470020014B1878704700BF88
:10B3C4006A47002007B508496846FFF772FB019BEE
:10B3D40013B903B05DF804FBD3E900209047684635
:10B3E400FFF76FFBF3E700BFBCCA0200FFF7EABF39
:10B3F40060DF704769DF704761DF704770B51A4BD3
:10B404001A4C1B4EE41AE4082404ADF5826D44F092
:10B41400040440F204450DF1020103A8ADF8025002
:10B42400FFF7EAFFA0B931462046BDF80C20FFF72C
:10B43400B1FD104901A8FFF73CFB029B002BEAD0A9
:10B4440003A8D3E90021904701A8FFF73AFBF4E7EA
:10B45400052805D00DF5826DBDE87040FEF7E0BB10
:10B464000DF5826D70BD00BF14BB020074BB0200F9
:10B47400B4C50200E4CA0200024B1B780BB1FFF70B
:10B48400BDBF70476B47002030B5054685B00C46FC
:10B49400002900F0A4800023CDE90133514A03932D
:10B4A40001230A608DF804008DF8063001A90623F3
:10B4B4002020ADF80830FFF79DFF60B1FFF74EFB89
:10B4C40049494A4B5B1ADB081B040246484943F0CE
:10B4D4000100FFF75FFD0023CDE9013303932268E8
:10B4E400012301A940208DF80530FFF783FF60B1E7
:10B4F400FFF734FB3C493D4B5B1ADB081B04024657
:10B504003C4943F00100FFF745FD0023CDE9013339
:10B51400039322688DF804504FF4007301A923208B
:10B52400ADF80630FFF766FF60B1FFF717FB2E4951
:10B534002E4B5B1ADB081B0402462F4943F0010023
:10B54400FFF728FD002301202268039301A9CDE918
:10B5540001338DF80400FFF74DFF60B1FFF7FEFAE9
:10B564002149224B5B1ADB081B040246234943F0A2
:10B574000100FFF70FFD0023CDE9023322684FF4E9
:10B58400B06301A9A1200193FFF734FF60B1FFF775
:10B59400E5FA1549154B5B1ADB081B0402461849EA
:10B5A40043F00100FFF7F6FC00232268039301A98E
:10B5B400A020CDE90133FFF71DFF10B9002005B02D
:10B5C40030BDFFF7CBFA0849084B5B1ADB081B04B4
:10B5D40002460C4943F00100FFF7DCFCEEE70E20C5
:10B5E400EDE700BF1831002014BB020074BB020059
:10B5F400C5C502000BC6020057C602009EC6020063
:10B60400EAC602003BC702002DE9F041D0F80080F1
:10B61400274C0546FFF7ECFE264BE41A2B68E4089A
:10B62400434506464FEA04441FD944F00207224921
:10B634003846FFF7ABFC2B68204942463846FFF7F3
:10B64400B2FC4FF080532A68D3F80C311C499B029A
:10B6540003F100539A1A3846FFF79CFCF6B9194BCC
:10B6640001221A703046BDE8F08144F004074246D6
:10B6740015493846FFF78EFC2A684245EED0134937
:10B684003846FFF787FC4FF080532A68D3F80C3113
:10B694000F499B0203F100539A1ADCE73046FFF787
:10B6A4005DFA0C49024644F00100FFF773FCD9E748
:10B6B40074BB020014BB02008EC70200BDC70200A7
:10B6C400EEC702006B47002018C802002BC8020016
:10B6D40057C8020089C802004BDF70471FB50E4CE3
:10B6E40001A8FFF7F9FF70B9214602A8FFF7E1F9B5
:10B6F400039B002BF4D00198D3E90021904702A8C2
:10B70400FFF7DFF9F4E7052804D004B0BDE81040E2
:10B71400FEF786BA04B010BDF0CA020043F210214D
:10B72400C2F20001096800F000B880B50B468DF83C
:10B7340003000DF103000121012200F020F800288C
:10B744009DF8030008BF4FF0FF3008BD38B504462C
:10B7540043F21020C2F200000568204600F00EF902
:10B7640002462846214600F0D5F801301EBF0A20C3
:10B77400BDE83840FFF7D2BF4FF0FF3038BDF8B511
:10B784001D4617460C460646184600F0A7F8002842
:10B7940003D407FB04F2A24201D20020F8BD2846DC
:10B7A400314600F0B7F8B0FBF4F0F8BD002B35D10A
:10B7B40029B9B0FBF2FC0CFB1202604670479142BF
:10B7C40015D22DE9F041B2FA82F39A409940D3F1AF
:10B7D400200C30FA0CFC51EA0C01984000F04EF8B1
:10B7E400280036FA03F200210023BDE8F081F0B509
:10B7F400B1FBF2FC0CFB1211B2FA82F39A409940AD
:10B80400D3F1200630FA06F63143984000F036F8BA
:10B81400614628003200DA400023F0BDF3B5B3FAE4
:10B8240083FC49085FEA300013FA0CF3DCF12004CE
:10B8340032FA04F423430CB41A0000F01FF80CBCD1
:10B8440033FA0CF3DCF11F0C35FA0CF518BF013D8B
:10B8540003BCA5FB026705FB0377801BB94190423B
:10B8640071EB030C05D3821A71EB0303681C0021EE
:10B87400F0BD02000B0028000021F0BD940D4FF62E
:10B88400C2752D02B5FBF4F4D60A013604FB04F5A7
:10B89400A5FB0656F64306EB0416550832BF0027EF
:10B8A4007708013505FB1677A6FB07477F0807EBEA
:10B8B400C63714001500E7FB02457F1B4D1C04002E
:10B8C400E7FB014505FB1206A64284BF013DB618FD
:10B8D400964224BF0135B61A704700BF43F21021C7
:10B8E400C2F2000143F20C220968091AC2F20002F2
:10B8F40018BF01211268121A18BF0122114043F225
:10B904001422C2F200021268101A18BF0120084063
:10B91400404270470068FFF775BC082938BF70477C
:10B924000022C0E9002144F27871C2F200010860EB
:10B93400704700B5042A8E4609D350F8043B5EF8DC
:10B9440004CB634505D1043A032A7146F5D89AB16C
:10B954000368086880EA030191FAA1F1B1FA81F160
:10B96400B2EBD10F08D901F0380123FA01F2C84033
:10B97400C0B2D1B2081A00BD002000BD0178002970
:10B9840004BF0020704700214FF001324358C2FA2F
:10B9940053F30431002BF9D093FAA3F0B0FA80F0FA
:10B9A40001EBD000043870470246F0B44FF0013781
:10B9B400FB0151F8044BE51BA5431D4002D142F89D
:10B9C400044BF6E70439F0BC11F8013B02F8013BE3
:10B9D400002BF9D1704700BF5AB3844690EA0103A3
:10B9E4009B071FD1830707D011F8013B00F8013BE7
:10B9F400013AF7D11CE08446203A09D32DE9F00737
:10BA0400B1E8F807A0E8F807203AF9D2BDE8F00752
:10BA14001C3205D451F8043B40F8043B043AF9D2F3
:10BA2400043205D011F8013B00F8013B013AF9D189
:10BA34006046704700220B0011001A0084465AB376
:10BA4400830704D000F8011B013AF9D124E0C9B2FC
:10BA540041EA012141EA0141202A11D3203A2DE98A
:10BA6400F0030B460C460D460E460F4688468946A3
:10BA7400A0E8FA03203AFBD2BDE8F00320320BD051
:10BA8400042A05D340F8041B043A05D0042AF9D249
:0CBA940000F8011B013AFBD1604670472E
:08BAA00079890200000000009A
:10BAA800017F020000000000AF7B02002838002060
:10BAB800DD820200683C0020FD6F020000000000EB
:10BAC800757D020000000000F78502005C3C002044
